:020000040800F2
:1000000060310020490100088D4700087939000857
:1000100027470008E1160008CB7F00080000000019
:100020000000000000000000000000005163000814
:1000300019260008000000005D540008336900081C
:100040006301000863010008630100086301000800
:1000500063010008630100086301000863010008F0
:1000600063010008630100086301000863010008E0
:1000700063010008630100086301000863010008D0
:1000800063010008630100086301000863010008C0
:1000900063010008630100086301000863010008B0
:1000A00063010008630100086301000863010008A0
:1000B0005D6C00081D6D0008356D000863010008C7
:1000C0006301000863010008630100086301000880
:1000D00063010008717B0008B57B0008C57C00083F
:1000E0001527000863010008630100086301000888
:1000F0006301000863010008630100086301000850
:10010000630100086301000863010008630100083F
:1001100063010008357B00084D6D0008630100088D
:10012000630100086301000863010008630100081F
:10013000DFF810D000F07CFD0048004791AE0008C9
:10014000AFF3008060310020064880470648004732
:10015000FEE7FEE7FEE7FEE7FEE7FEE7FEE7FEE777
:10016000FEE7FEE735690008310100082DE9F0419E
:100170000024061B254671F1000605DA012400273C
:10018000D0EB070067EB0101161E73F1000605DADC
:100190000027D2EB0702012567EB030300F0D4FB35
:1001A00086460E4617469C46AC4204D00025D0EB4E
:1001B000050E65EB010624B10020D2EB000760EBD1
:1001C000030C704631463A466346BDE8F08140EA8A
:1001D00001039B0703D009E008C9121F08C0042AC5
:1001E000FAD203E011F8013B00F8013B521EF9D2AC
:1001F0007047D2B201E000F8012B491EFBD27047D4
:100200000022F6E710B513460A4604461946FFF7E2
:10021000F0FF204610BD421E12F8013F002BFBD11B
:1002200011F8013B02F8013B002BF9D17047421C49
:1002300010F8011B0029FBD1801A704710B500226D
:1002400000E0521C835C8C5CA34201D1002BF8D1EE
:10025000D8B2E1B2401A10BD30B5044600200346C2
:1002600000E05B1C934203D2E05CCD5C401BF8D005
:1002700030BDF0B480EA0102D40F4200B2EB410F6E
:1002800002D20246084611464A0042D0C30DDDB2F2
:10029000C1F3C752AD1A202D35DAC1F3160141F46E
:1002A000000204B15242C5F1200602FA06F12A41C9
:1002B0001044B3EBD05F23D0C4B1012DA0EBC350E9
:1002C00009DCF0BC4FF0004202EAC352DBB200F599
:1002D000000000F0F2BB400000F1807000EBC35062
:1002E000A0F1807040EAD170490009E0490841EA74
:1002F000C071A0EBC35000F50000400800EBC350F4
:10030000F0BC00F0D1BB6142012202EB4101001BB5
:10031000F6E7F0BC704781F00041AAE780F00040AA
:10032000A7E780EA010210B502F00043400022D0A6
:100330004A001FD0010E01EB1261C0F35600C2F358
:10034000560240F4000042F40002A0FB0220000428
:100350007F39140400D0401C50EA124001D4400000
:10036000491EC2B20C0604EBD010401C4008802A83
:1003700002D003E0002010BD20F00100002900DAC7
:100380000020184310BD30B480EA010202F000459D
:1003900030F0004221F0004013D090B1C30DD40DD5
:1003A000C2F31601C0F31600E41A41F4000140F450
:1003B00000027D34914201D3641C00E04900002C0E
:1003C00002DA30BC002070474FF400000023914255
:1003D00001D3891A034340084FEA4101F7D151B1D3
:1003E000914202D14FF0004105E002D24FF00101ED
:1003F00001E06FF0010103EBC450284430BC00F071
:1004000053BB2DE9FE4F804681EA0300C00F0C4626
:10041000009021F0004123F00045B8EB0200A94113
:1004200005D24046214690461C460B46024623F024
:100430000040104347D0270DC7F30A00C3F30A5109
:100440000290401A019040286BDAC3F3130040F485
:10045000801B0098924620B10023D2EB030A63EB85
:100460000B0B01985946C0F14002504600F09DFA2E
:1004700006460D4650465946019A00F0B5FA10EB73
:1004800008006141002487EA115284EAE7731A43A5
:1004900040D0009A62B3019A012A4FEA075215DC54
:1004A000001B61EB02014FF0004202EA0752CDE966
:1004B0000042001C41F5801132462B4600F03AFB09
:1004C00003B0BDE8F08F40462146F9E7001B61EB21
:1004D0000201001C41F5801300185B412018A2F5B1
:1004E000001747EB030140EAD570B6196D4111E0E2
:1004F0006D084FEA360645EAC0754FEA0752001B01
:1005000061EB0201001C41F5801149084FEA3000FF
:100510000019514132462B4603B0BDE8F04F00F0C0
:10052000FABA0098012240000023D0EB020263EBEC
:10053000E073009821464FEAE074B8EB000061EBED
:100540000401E9E783F000435BE781F0004158E7ED
:100550002DE9FE4F81EA030404F0004421F000413C
:1005600000944FF0000B23F0004350EA01045ED0EA
:1005700052EA03045BD0C3F30A54C1F30A552C4476
:10058000A4F2F3340194A0FB0254C1F3130141F42B
:100590008011C3F3130343F4801301FB024400FBF7
:1005A000034E840A970A44EA815447EA8357A4FB1E
:1005B000076802958D0A05FB07854FEA932C04FB1B
:1005C0000C542705029D4FEA065847EA1637B5EB4B
:1005D00008056EEB070C870E920E47EA811742EA78
:1005E0008312A7FB0201B6EB0B0164EB00042B0D99
:1005F00043EA0C335E1844EB1C50DA465146E7FBE5
:100600000201C5F313044FEA0B3343EA14534FEAD4
:100610000432019C43EA0603A4F10C040294009CFA
:10062000CDE900B400F086FA03B0BDE8F08F0020F9
:100630000146F9E72DE9F04D81EA030404F0004B8F
:1006400021F0004514464FF0000A23F0004150EA23
:10065000050220D054EA01021DD0C5F30A57024614
:10066000C5F31303C1F31300C1F30A5640F4801518
:1006700043F48013A7EB0608101BD64608F2FD389A
:1006800073EB050002D308F1010801E092185B4109
:10069000B8F1000F03DA00200146BDE8F08D00201C
:1006A0004FF48011064684460EE0171B73EB0507D6
:1006B00005D3121B63EB050306434CEA010C490802
:1006C0004FEA300092185B4150EA0107EDD152EA3F
:1006D000030012D082EA040083EA0501084305D032
:1006E000101BAB4106D20122002306E000224FF08E
:1006F000004302E06FF0010253101AEB06004CEBCE
:10070000085110EB0A0041EB0B01BDE8F04D00F081
:1007100002BAC10F80EAE0700844CA07962300219C
:1007200000F0CBB996230022114600F0C6B90EB5F1
:10073000C10F80EAE0700844CA07002140F2334349
:100740008DE80E000A460B4600F0F4F903B000BD38
:100750000EB540F2334102910021CDE900110A4665
:100760000B4600F0E7F903B000BD00F0004220F0B6
:100770000040C10DC0F3160040F400007F2901DAEB
:1007800000207047962903DCC1F19601C84001E0C2
:1007900096398840002AF4D04042704720F000404B
:1007A000C10DC0F3160040F400007F2901DA0020DB
:1007B0007047962903DCC1F19601C840704796390D
:1007C0008840704770B5C1F30A5201F0004500241B
:1007D000C1F3130140F2FF3341F480119A4201DA70
:1007E000002070BD40F233439A42A2F2334203DC50
:1007F000524200F0E9F800E090402C43F1D0404232
:1008000070BDC1F30A5210B5C1F3130140F2FF33BA
:1008100041F480119A4201DA002010BD40F23343C6
:100820009A42A2F2334203DC524200F0CDF810BDEE
:10083000904010BD00F0004230F000400AD0C10DE1
:1008400001F56071C0F3160042EA0151C208400789
:1008500011437047002001467047000030B5041E68
:1008600071F1000404DB4FF00044404264EB0101ED
:10087000141E73F1000405DB1C464FF00043524286
:1008800063EB04038B4208BF824230BD30B5041EC7
:1008900071F1000404DB4FF00044404264EB0101BD
:1008A000141E73F1000405DB1C464FF00043524256
:1008B00063EB0403994208BF904230BD01F000434E
:1008C00030B421F0004150EA010206D00A0DA2F531
:1008D0006072C1F31301002A02DC30BC00207047B3
:1008E000440F44EAC104C100E01830BC00EBC25020
:1008F00000F0DAB8002801DBC0F10040002901DB7C
:10090000C1F1004181427047002801DBC0F1004085
:10091000002901DBC1F100418842704730B50B4628
:10092000014600202022012409E021FA02F59D421F
:1009300005D303FA02F5491B04FA02F52844151EF3
:10094000A2F10102F1DC30BD2DE9F05F0546002087
:1009500092469B4688460646814640241BE0284630
:1009600041464746224600F02FF853465A46C01AE1
:10097000914110D311461846224600F016F82D1A60
:1009800067EB01084F4622460120002100F00DF8D8
:1009900017EB00094E41201EA4F10104DFDC48469C
:1009A00031462A464346BDE8F09F202A04DB203A20
:1009B00000FA02F1002070479140C2F1200320FAB2
:1009C00003F3194390407047202A04DB203A21FAB0
:1009D00002F00021704721FA02F3D040C2F1200258
:1009E0009140084319467047202A06DBCB17203A6E
:1009F00041FA02F043EAE07306E041FA02F3D04024
:100A0000C2F1200291400843194670470FB40023F9
:100A100000B589B00CA900910B996FF00042CB6032
:100A20001E4B06931E4B07930423CDE901321D4A4A
:100A3000089202466B46002000F0A6F909B05DF866
:100A400014FB70B586B006464FF0FF300091CDE93B
:100A50000101002015460C4604903246694604A860
:100A6000FFF7D4FF02460498211825B108B10846C3
:100A700000E020462860049800280DD0002A02DDFE
:100A80000098884208D0081B0094CDE90104324642
:100A9000694604A8FFF7BAFF06B070BDC10F000891
:100AA000DF0F0008550C00080029A8BF7047401C44
:100AB000490008BF20F00100704710B4B0FA80FC74
:100AC00000FA0CF050EA010404BF10BC704749B1B1
:100AD000CCF1200421FA04F411FA0CF118BF012121
:100AE00021430843A3EB0C01CB1D4FEA00614FEA01
:100AF000102042BF002010BC704700EBC3501044D0
:100B00000029A4BF10BC7047401C490008BF20F05A
:100B1000010010BC704710B5141E73F1000408DA10
:100B2000401C41F1000192185B411A4301D120F0B1
:100B3000010010BD2DE9F04D92469B4611B1B1FA6E
:100B400081F202E0B0FA80F220329046FFF72DFFEA
:100B500004460F4640EA0A0041EA0B0153465A4652
:100B6000084313D0114653EA010019D0C8F14002DE
:100B70005046FFF729FF05460E4650465946424665
:100B8000FFF713FF084305D0012004E02046394653
:100B9000BDE8F08D0020054346EAE0762C4337435C
:100BA0000A986305E40AA0EB08000022FD0A44EA63
:100BB00047540A3002D500200146E9E70105101923
:100BC0006941DDE9084500196941BDE8F04DA2E73A
:100BD00070B521F0004303430CD0C1F30A55002443
:100BE000D5EB040564EB0403D617AD1AB34102DB61
:100BF0000020014670BD201841EB025170BDC1F3C9
:100C00000A52C1F3130140F2FF3341F480119A42BA
:100C100002DA00200146704740F233439A42A2F2C2
:100C2000334202DC5242FFF7CFBEFFF7BEBE0000E8
:100C3000064C074D06E0E06840F0010394E8070029
:100C400098471034AC42F6D3FFF776FAB0FF0008AD
:100C5000D0FF0008C0B24FF4F05100F023BA0000FA
:100C60002DE9FF4F087883B09946FF2805D0491C2D
:100C70002D2804D00024002008E000200BE00124EF
:100C8000F9E700EB800003EB4000491C0B78FF2BD9
:100C9000F7D104B1404200230293147819461D464F
:100CA0002D2C01D02B2C04D1521C2D2C13D0002420
:100CB0000294AA461478FF2C0FD00A25A3FB0578CE
:100CC00001FB05814FF0000C03FB0C11521CE319D2
:100CD0004AEB0101EEE70124EAE7814453EA01000F
:100CE00002D019F5C87F06DA03980021C0E9001187
:100CF00007B0BDE8F08F0025AE4E2F46DFF8B88272
:100D0000184600F0E3F9CDE90001B9F1000002DA7C
:100D1000C9F1000400E004460023A74A1AEB030BC4
:100D200042EB045A12E0E00707D02A463346384621
:100D30004146FFF70DFC074688462A4633461046D3
:100D40001946FFF705FC05460E466410002CEAD153
:100D5000DDE90001B9F1000F5A46534606DAFFF704
:100D600069FC3A464346FFF765FC05E0FFF7F0FBF8
:100D70003A464346FFF7ECFB029A0AB181F0004184
:100D8000039AC2E90001B3E72DE9FF4F1F468DB07A
:100D9000D7E901464FF0FF382E2045464FF00009B5
:100DA0000B90B9696D1C0E988847396A824688474E
:100DB0000028F6D1BAF1FF3F0AD024F4D064002E07
:100DC00011DDBAF12B0F08D0BAF12D0F0BD102E0D3
:100DD000404611B08DE744F48064B9696D1C0E98EB
:100DE00088478246761E6946600501D52D2000E0C1
:100DF0002B208DF8000001F1010B0DF1200809E016
:100E0000B9696D1C0E98884782460F9844F40074A7
:100E1000761E0560002E02DDBAF1300FF0D00B997E
:100E20008A453ED144F0800406E00F99681CA9F180
:100E3000010944F400740860B9696D1C761E0E98AF
:100E4000884782463028F0D02BE00B998A4505D19F
:100E5000200603D444F08004761E18E0504607F0C4
:100E60002BFB08B30DF11301761E44F400748B457F
:100E700008D2AAF130000BF8010B200607D5A9F122
:100E8000010003E0200602D409F101008146A0051B
:100E900002D50F99681C0860B9696D1C0E988847C7
:100EA0008246002ED1DC53E0002E51DDBAF1650FF1
:100EB00002D0BAF1450F4BD1A00549D5B9696D1CD7
:100EC00024F44074761E0E9888478246002E0CDD6E
:100ED0002B2804D0BAF12D0F07D144F48074B969DE
:100EE0006D1C0E9888478246761EE00501D52D219F
:100EF00000E02B2108F8011BCDF82C8021E00DF13A
:100F00002901761E44F4007488450CD2AAF1300001
:100F100010F0FF0088F8000002D10B99884509D92C
:100F200008F1010806E0E00501D5244801E042F29D
:100F30000F708146B9696D1C0E98884782460F98DC
:100F40000560002E04DD504607F0B6FA0028D6D121
:100F5000F9690E988847FF208BF8000088F8000098
:100F60000020069007904B466A4608A906A8FFF79E
:100F700077FEA00502D46FF001002AE714F0240FD9
:100F80000AD0E00714D1DDE906123868031D3B6082
:100F90000068C0E900120BE0DDE90601FFF78EFCF6
:100FA0000146E00704D13868021D3A60006801601C
:100FB00028460EE7000014400000F03FF1D8FFFF84
:100FC000426842B1016811F8013B23B1521EC0E9E9
:100FD0000012184670470121C160881E70474268A0
:100FE0005AB1C368016843B983688B4205D0491E72
:100FF000521CC0E90012002070474FF0FF307047CC
:101000002DE9F04D00231A461B1A8A4103DB00200C
:101010000146BDE8F08DC1F30A52C1F3130141F45A
:1010200080154FF0000BD10702D100186D41521E00
:101030000027044640F2FF11384601EB620A3E46A3
:101040008046024600204FF48011FFF7BDFCC21914
:101050007141BB1846EB0100B4EB030C75EB000CBF
:1010600004D3E41A65EB000517460E46241908F16F
:1010700001006D4180463428E3DDF91946EB060096
:10108000091BA84103D24FF0FF32134601E00022B2
:1010900013461BEB070046EB0A51BDE8F04DFFF786
:1010A0003ABD00007F2801D9002208E0064A02EB81
:1010B0005002C007127800D1120902F00F0201207D
:1010C000904008407047000020FF00080EB540F235
:1010D000334202920022CDE900221346FFF72AFD97
:1010E00003B000BD70B58C1810F8015B15F0070354
:1010F00001D110F8013B2A1106D110F8012B03E0B1
:1011000010F8016B01F8016B5B1EF9D12B0705D4B8
:101110000023521E0DD401F8013BFAE710F8013B01
:10112000CB1A921C03E013F8015B01F8015B521E1D
:10113000F9D5A142D8D3002070BD21B1826842F018
:101140000102826003E0826822F00102826070473F
:1011500010B504461248844208D10121401504F01C
:101160006BFD0021601504F067FD17E00D48844217
:1011700008D10121001504F05FFD0021201504F0C5
:101180005BFD0BE00848844208D10121C80304F04C
:1011900053FD00214FF4004004F04EFD10BD00004F
:1011A0000024014000280140003C0140014600208D
:1011B0008A6802F004020AB1012000E000207047B2
:1011C0000146C86C80B270470246002013680B408D
:1011D0000BB1012000E000207047014600208A6822
:1011E00002F008020AB1012000E000207047000070
:1011F00030B502460020002350680F4C20400D7986
:101200000C6844EA05242043506090680B4C204051
:10121000D1E902542C434D7944EA450420439060BF
:10122000D06A20F470000C7C641EE4B2234340EAD0
:101230000350D06230BD0000FFFEF0FFFDF7F1FF6C
:10124000F0B504460D4600200021092D11DDE068AF
:10125000A5F10A0606EB4607072606FA07F18843BA
:10126000A5F10A0606EB460603FA06F10843E0601C
:101270000CE0206905EB4507072606FA07F18843CD
:1012800005EB450603FA06F108432061072A0FDA49
:10129000606B561E06EB86071F2606FA07F1884389
:1012A000561E06EB860605FA06F10843606322E047
:1012B0000D2A0FDA206BD61F06EB86071F2606FACB
:1012C00007F18843D61F06EB860605FA06F10843A8
:1012D000206310E0E06AA2F10D0606EB86071F26E8
:1012E00006FA07F18843A2F10D0606EB860605FA19
:1012F00006F10843E062F0BD816841F008018160B9
:10130000704721B1826842F4A002826003E08268E3
:1013100022F4A00282607047816841F0040181607C
:101320007047000010B527480088C0F1A00000B247
:10133000254908802348008943F2C821884202DDFC
:101340000846204908811F48008941F66411081A9F
:1013500000B21E4908801B48008928B900201C499A
:1013600008601C49086010BD1848B0F9000040F240
:10137000DC51884205DC1548B0F9000010F57A6FA1
:1013800004DA01F045FD1249086002E0002010492E
:10139000086006F04DFB0F4908600F490C480068D3
:1013A000FFF7B2FA03D20C480949086008E00B497C
:1013B00007480068FFF79EFA02D20848044908600F
:1013C00000BFD0E71E030020280300202C030020CC
:1013D00024000020280000200000F0410000F0C19F
:1013E00010B50F480068FA2812D20E480E4908605E
:1013F00001200AF0F3FE00200B4908600B480C495D
:10140000086001200AF0EAFE00200949086005E0B2
:1014100008480549086000200549086010BD000023
:10142000D8000020000020C1240000200000E1437B
:1014300028000020000070411648007840B115488F
:1014400000780B2804D0134800780C2800D070478F
:101450001148006800B9FAE70F480068142807D956
:101460000D480068642803D20B200A4908700FE079
:1014700009480068F02808D907480068B0F5967F49
:1014800003D20C200349087002E0002001490870D3
:1014900000BFDCE7B0010020D800002008B5012122
:1014A000102004F0B9FB4FF47070ADF80000182064
:1014B0008DF8030003208DF802006946014801F011
:1014C00009FD08BD0010014030B587B005460C4647
:1014D0000121480304F0A0FB254805F013FD681E18
:1014E00080B2ADF81400ADF810400020ADF8160041
:1014F000ADF8120004A91E4806F01CF86020ADF8F3
:1015000000000120ADF802000020ADF80600ADF8A3
:1015100008006946164805F083FE6946144805F040
:10152000D5FE6946124805F031FF6946104805F0BE
:1015300087FF01210E4805F0D5FC08210C4805F075
:10154000BBFE08210A4805F013FF0821084805F0F2
:101550006DFF0821064805F0B1FF0121044805F0A0
:10156000A3FC0121024805F0B1FC07B030BD00002A
:10157000003401402DE9FC5F04460D461F48006819
:10158000FFF7C7F880462146FEF7C5FE0646294606
:101590000020FEF7C0FE0190194801680198FEF78F
:1015A000C0FE82461749FEF7EEFE814616480068E7
:1015B00080F0004B13495846FEF7E5FE824631465F
:1015C000FEF7AFFE49460090FEF7A5FE8046FFF706
:1015D000CCF807460D48007803280CD13846FFF7B1
:1015E00098F881460A4801684846FEF79AFE804608
:1015F000FFF7BBF807463846BDE8FC9F20000020F7
:10160000600100200000C8425C0100200B020020A5
:101610005001002070B504464FF47A75072301226B
:1016200021460B48FFF70CFE01210948FFF769FE30
:1016300000BF02210648FFF7C7FD20B9281EA5F10B
:1016400001018DB2F5D10248FFF7BAFD70BD00006F
:101650000024014000B587B001214FF4017004F06F
:10166000DBFA4FF4004004F0ABFA2020ADF80400A0
:1016700000208DF8070001A9174801F02BFC17483E
:10168000FFF766FD002002908DF80C008DF80D002C
:101690004FF4602004900020059001208DF8180080
:1016A00002A90E48FFF7A4FD01210C48FFF745FDF4
:1016B0000A48FFF721FE00BF0848FFF78EFD00280B
:1016C000FAD10648FFF728FE00BF0448FFF76EFD79
:1016D0000028FAD107B000BD0008014000240140F5
:1016E00000BFFEE710B504F021FB002007E006492B
:1016F00031F81010C1F3C701044A1154401C80286E
:10170000F5DB024810BD0000C0050020C006002027
:101710002DE9F04792B036480068012864D1354879
:1017200004683548D0F80090344935480068FEF721
:101730002AFE344908603448006834490860344857
:101740000068FFF705F807460022324BFEF772FFEC
:101750000546FFF7B3F8824650212F48FEF750FDAB
:101760002D482EA1096801602D480068FFF762F836
:1017700005460E465046FFF75DF807468846234863
:101780000068FFF757F8CDE910011E480068FFF721
:1017900051F8CDE90E014846FFF74CF8CDE90C01B0
:1017A0002046FFF747F8CDE90678CDE90856CDE9A0
:1017B0000A01DDE91001CDE90401DDE90E01CDE901
:1017C0000201DDE90C01CDE9000116A11248DDE9B5
:1017D0000A2306F003FD50211F48FEF711FD502299
:1017E0000D491D48FEF7F3FC12B0BDE8F08700007C
:1017F0009C010020480100204C0100200000C8424C
:101800001C000020E401002008000020E801002066
:10181000D8000020000024404C070020244C560033
:1018200038010020244C5625332E32662C52562582
:10183000332E32662C414325332E32662C475925F0
:10184000332E32662C43534225332E32662C5654A7
:1018500025332E32662300009C07002010B5224954
:1018600022480068FFF750F808D800202049086097
:101870004FF400611F4801F00AFC10BD1E491B48CF
:101880000068FFF737F805D84FF40061194801F0F8
:1018900000FC13E0194915480068FFF72BF805D83C
:1018A0004FF40061134801F0F2FB07E04FF40061D0
:1018B000104801F0ECFB00200D490860104800685A
:1018C000032803DA0F480A4908600AE00C48006858
:1018D000032803DD04480649086002E000200449AB
:1018E000086000BFC9E700000000E143500300208A
:1018F0002800002000080140000048430000BE43CB
:10190000540300200000E1C370B53D490868FEF7AC
:1019100009FF05463A49D1F83804FEF703FF0646A9
:101920003749D1F86801FEF7FDFE044635480078D6
:10193000062863D2DFE800F0032029363F5B3249F6
:101940002846FEF7D7FF10D200212846FEF7DCFF1D
:101950000BD200202D4908602D4908600A2007F0AD
:101960008FFF01202749087005E02A4827490860B1
:1019700000202749086041E009F0CAF820B9214851
:101980000078401C1F49087038E023481F49086050
:1019900000201F490860642007F072FF03201949E6
:1019A000087000BF09F0B4F820B916480078401C50
:1019B0001449087022E021463046FEF7A5FF09D8F9
:1019C000002012490860154811490860642007F09A
:1019D00057FF08E000200D49086011480C490860D5
:1019E000642007F04DFF05200649087000BF09F08C
:1019F0008FF810B900200349087000BF00BF70BD08
:101A0000780B0020750300200000AF432400002065
:101A1000280000200000A041000070C10000E1C3C8
:101A20000000E14370B52D490868FEF77BFE0446CF
:101A30002A49D1F8EC04FEF775FE05462749D1F88E
:101A4000B400FEF76FFE064625492046FEF752FF1A
:101A50000BD200212046FEF757FF06D2214822492B
:101A6000086000202149086037E021492046FEF740
:101A70004BFF0BD21F492046FEF73CFF06D21E4803
:101A80001949086000201949086026E01B492846CA
:101A9000FEF730FF0BD21A492046FEF735FF06D27B
:101AA00000201149086017481049086015E01349E3
:101AB0003046FEF71FFF0BD211492046FEF724FFE8
:101AC00006D20020084908600A480849086004E076
:101AD0000020054908600549086070BD780B0020AA
:101AE00000000243000070C12400002028000020F4
:101AF0000000A0430000E143000070410000AA4341
:101B000000007A430000E1C310B565490868FEF79C
:101B100009FE044663480078072812DB01230022EF
:101B2000022161A002F071FE00BF012002F036FC2C
:101B30000028FAD000205B49087001205F49087036
:101B400010BD5F492046FEF7D5FE20D20021204679
:101B5000FEF7DAFE1BD25B480078012816D1C102DD
:101B6000594801F096FA594800685949086059489F
:101B700000685949086000205449086055490860C8
:101B80005049087008F0C4FF54490880D8E74D4810
:101B90000078A0B94E4800684C4908604E4800687B
:101BA0004C4908604FF40061474801F070FA012089
:101BB00044490870494800880AF08AFCC0E739485F
:101BC0000078082869D2DFE800F004161F313A488F
:101BD000516243484349086043483C49086000203B
:101BE0003C490860C82007F04BFE2E480078401C96
:101BF0002C49087051E008F08BFF20B92948007883
:101C0000401C2849087048E03848364908600020E0
:101C10002E49086036482F4908603F2007F030FE03
:101C200020480078401C1F49087036E008F070FF1B
:101C300020B91C480078401C1A4908702DE000208B
:101C400022490860234908601E2007F019FE154844
:101C50000078401C134908701FE008F059FF20B9B4
:101C600010480078401C0F49087016E013480078AF
:101C7000082808DA11480078401C10490870002034
:101C80000849087002E007200649087005E00020B6
:101C90000E4908600F49086000BF00BF00BF4FE752
:101CA000780B002076030020706174726F6C2070D6
:101CB0007574206B65793120202020007703002087
:101CC000000096436003002000080140240000202B
:101CD00058030020280000205C030020620300203D
:101CE00000008C427C0100200000704100000C428A
:101CF0000080A24410B54248007801287ED100201F
:101D00003F4908703F4940A0FEF798FA98B9012072
:101D10003F490860142007F0A9FD00203D49C1F8A3
:101D2000AC013D483D49086002200AF057FA002006
:101D30003A49086062E0334939A0FEF77FFA98B962
:101D4000012033490860142007F090FD002031493C
:101D5000C1F8AC0134483149086002200AF03EFA6B
:101D600000202E49086049E0264930A0FEF766FAB7
:101D700098B9012026490860142007F077FD00205B
:101D80002449C1F8AC012C482C49086001200AF014
:101D900025FA00202949086030E01A4928A0FEF7FA
:101DA0004DFA98B901201A490860142007F05EFD29
:101DB00000201849C1F8AC012448204908600120DE
:101DC0000AF00CFA00201D49086017E00D4920A018
:101DD000FEF734FA90B900240EE001200C490860A7
:101DE000142007F043FD00200A49C1F8AC0114207B
:101DF00007F03CFD601CC4B2032CEEDB10BD0000FC
:101E00001A0300204C090020676F6261636B0000B9
:101E1000AC01214200002142000070C124000020DA
:101E2000676F616865616400000070417475726E6F
:101E30006C656674000000000000C8C32800002024
:101E40007475726E72696768740000000000C843A0
:101E500062757A7A6572000010B52648007801280C
:101E600046D1002023490870234924A0FEF7E6F953
:101E700078B901230022032121A002F0C6FC012031
:101E8000224908600AF0AAF900202149C1F8AC01F2
:101E90002EE019491FA0FEF7D1F990B901230022C5
:101EA00003211DA002F0B1FC1E481F49086001205B
:101EB0000AF094F901200AF091F900201A4908600B
:101EC00016E00D4919A0FEF7B9F988B901230022DF
:101ED000032117A002F099FC18481349086001205B
:101EE0000AF07CF901200AF079F900200E49086017
:101EF00010BD00001A0300204C090020360000002D
:101F00006E756D3A3621202000000000AC012142A0
:101F100000002142320000006E756D3A322120200F
:101F2000000000000000C8C32800002033000000AB
:101F30006E756D3A33212020000000000000C84378
:101F400010B523480078012840D1002020490870AE
:101F5000204921A0FEF772F948B9204820490860BD
:101F600002200AF03BF900201D4908602EE01949C3
:101F70001CA0FEF763F990B91B481C4908600120BA
:101F80000AF02CF900201949086019481449086022
:101F900001200AF023F900201149086016E00D49DC
:101FA00014A0FEF74BF988B90C48104908600120CD
:101FB0000AF014F900200D4908600D48084908602E
:101FC00001200AF00BF900200549086010BD00004F
:101FD0001A0300204C090020310000000000C84313
:101FE00024000020320000000000C8C328000020A8
:101FF00000007041330000002DE9F05F05460C46FB
:10200000124E134801682046FEF78BF983461148AB
:1020100001685846FEF72DF9804631464FF07E5054
:10202000FEF779F982464146FEF77BF907463146CD
:102030002846FEF776F981463946FEF71AF9054932
:10204000086008460068BDE8F09F00000AD7A33C7E
:1020500044020020840200202DE9F05F05460C4672
:10206000124E134801682046FEF75BF9834611487B
:1020700001685846FEF7FDF8804631464FF07E5025
:10208000FEF749F982464146FEF74BF907463146CD
:102090002846FEF746F981463946FEF7EAF8054933
:1020A000086008460068BDE8F09F00000AD7A33C1E
:1020B00044020020C40200200146072323EA010253
:1020C0001202054B18684FF6FF031840034B1843E4
:1020D0001043014B186070470CED00E00000FA055A
:1020E00038B5002000906B4601227521682008F069
:1020F000BFFD2CA006F062F89DF8000068280ED005
:1021000000BF3148006800F4E06030490843001D1A
:102110002D490860BFF34F8F00BF00BFFEE709F0F5
:1021200051F900283CD1782009F056FF10B91DA0C4
:1021300006F044F8782009F033F810B924A006F02E
:102140003DF8C82009F0FAFE10B92BA006F036F8C9
:1021500007F034FD10B932A006F030F83D4808F021
:1021600029FE044607F084FF10B93BA006F026F8CC
:1021700040F2731007F0CAFB10B941A006F01EF838
:10218000C82007F0A5FE10B947A006F017F80AF01E
:102190000FF9012009F0CEFD10B94CA006F00EF8A1
:1021A00038BD00006D70755F7365745F73656E7325
:1021B0006F7220636F6D706C657465202E2E2E2EED
:1021C0002E2E0D0A000000000CED00E00000FA05C4
:1021D0006D70755F636F6E6669677572655F66695E
:1021E000666F20636F6D706C657465202E2E2E2EC9
:1021F0002E2E0D0A000000006D70755F7365745F10
:1022000073616D706C655F7261746520636F6D7072
:102210006C657465202E2E2E2E2E2E0D0A000000C9
:10222000646D705F6C6F61645F6D6F74696F6E5F1A
:102230006472697665725F6669726D776172652036
:10224000636F6D706C657465202E2E2E2E2E2E0DF4
:102250000A0000008C000020646D705F7365745F7D
:102260006F7269656E746174696F6E20636F6D70F3
:102270006C657465202E2E2E2E2E2E0D0A00000069
:10228000646D705F656E61626C655F6665617475D3
:10229000726520636F6D706C657465202E2E2E2E16
:1022A0002E2E0D0A00000000646D705F7365745F70
:1022B0006669666F5F7261746520636F6D706C65CF
:1022C0007465202E2E2E2E2E2E0D0A006D70755F39
:1022D0007365745F646D705F737461746520636FA0
:1022E0006D706C657465202E2E2E2E2E2E0D0A001C
:1022F00010B50446242C0AD11C48007838B90120B6
:102300001A49087014211A48FDF77AFF10BD1748C2
:102310000078012828D1232C0BD100201349087004
:102320001449087001F074F914211148FDF768FF91
:102330001AE00E480078012816D1242C14D00D483C
:1023400001780078401C0B4A10700948445410462C
:102350000078142808DD0020114608700349087031
:1023600014210348FDF74CFF00BFCFE71C030020FA
:10237000600900201D03002010B50446242C0AD15A
:102380001B48007838B901201949087014211948F0
:10239000FDF736FF10BD16480078012826D1232C02
:1023A00007D1002012490870134908700120134911
:1023B00008700F480078012818D1242C16D00E4838
:1023C00001780078401C0C4A10700A4844541046AA
:1023D000007814280ADD00201146087004490870AE
:1023E0000649087014210348FDF70AFF00BFD1E732
:1023F000180300204C090020190300201A030020B4
:1024000010B50446242C0AD11B48007838B90120A5
:102410001949087014211948FDF7F2FE10BD16483D
:102420000078012826D1232C07D1002012490870FA
:10243000134908700120134908700F4800780128DB
:1024400018D1242C16D00E4801780078401C0C4A74
:1024500010700A4844541046007814280ADD002001
:102460001146087004490870064908701421034891
:10247000FDF7C6FE00BFD1E7180300204C0900207D
:10248000190300201A03002010B50446242C0AD199
:102490001B48007838B901201949087014211948DF
:1024A000FDF7AEFE10BD16480078012826D1232C7A
:1024B00007D1002012490870134908700120134900
:1024C00008700F480078012818D1242C16D00E4827
:1024D00001780078401C0C4A10700A484454104699
:1024E000007814280ADD002011460870044908709D
:1024F0000649087014210348FDF782FE00BFD1E7AA
:10250000180300204C090020190300201A030020A2
:1025100070B52D4C2D48C07800EB400600252B48A7
:1025200000782A49497840EA0120208027488078AD
:10253000A0702648C078E070244800792349497982
:1025400040EA0120A080214880792049C97940EAE9
:102550000120E0801D48007A1C49497A40EA0120A8
:10256000208100201AE000F10A01184A515C04F1B0
:102570000A0222F8251000F10B01144A525C491C92
:10258000124B595C42EA012329466A1CD5B204F178
:102590000A0202EB81014B80C11C88B2B042E2DB2F
:1025A000204605F022F828B140F2AA512046FDF756
:1025B00027FE70BD01200649087001020348FDF79F
:1025C0001FFE00BFF5E7000098270020780A0020D2
:1025D0004503002010B54FF480720B490B48FDF7FE
:1025E000F6FD4FF480710848FDF70AFEFFF790FFF3
:1025F00007480078012805D10020054908700548E2
:1026000001F0B4F810BD000078090020780A00201D
:102610004503002098270020704701B500200AE0FC
:10262000002001E0411CC8B20A28FBDB9DF8001025
:10263000491EC9B200919DF800100029F0D108BDD3
:102640002DE9F04104460D4629462046FDF766FE79
:1026500010490860104801680E480068FDF75BFEED
:1026600080460E49FDF75DFE06460A4801684FF0B8
:102670004040FDF756FE07463146FDF74CFE08493F
:102680000860044800680449086005480068BDE81F
:10269000F0810000800300208803002000004041FA
:1026A000840300202DE9F04104460D4629462046CA
:1026B000FDF734FE10490860104801680E480068B4
:1026C000FDF729FE80460E49FDF72BFE06460A4817
:1026D00001684FF04040FDF724FE07463146FDF704
:1026E0001AFE084908600448006804490860054863
:1026F0000068BDE8F081000068030020700300203E
:10270000000040416C030020002000E0401C0A282B
:10271000FCDB70472DE9F0418748006800287DD137
:102720004FF480508549086085480088002804DD02
:1027300083480088401E8249088082480078042827
:102740000DD181480078401C7F4908700846007808
:10275000142855DD0020087002F060FB50E0794835
:102760000078052802D103F091FE49E07548007811
:10277000062802D103F08AFE42E07248007812284F
:1027800013D172480078401C7049087008460078E0
:10279000042835DD0020087003F070FEFEF7A2FF6C
:1027A0006B49086006F0E0FF2AE0664800781328CD
:1027B00004D107F0DBFE04F011F821E06148007855
:1027C000082802D103F074FE1AE05E480078092858
:1027D00002D1FEF7A7FD13E05A480078102802D175
:1027E00001F010FE0CE057480078112802D101F0EA
:1027F00079FE05E0534800780E2801D100F07CFEF8
:102800005448007800F07CFC002003F0FFFB804679
:10281000012003F0FBFB4542294600E089E04046E9
:1028200001F024F84C4801684C480068FEF7A2FE0D
:1028300007462946404605F0CBFB0646414800784E
:10284000052803D03F480078062805D14448006891
:1028500004F05CFF044622E03A480078122805D1D3
:102860003F48006804F0E8FE044618E03548007868
:10287000132805D13A48006804F010FF04460EE022
:1028800030480078082805D13548006804F0CEFFAC
:10289000044604E03248006805F036F80446B819EA
:1028A000204430490860B819001B2F4908602D48A2
:1028B000006802F0BDFD2B4908602B48006802F05B
:1028C000B7FD29490860294A51422648006802F0AC
:1028D000BCFD24490860254A51422348006802F0A3
:1028E000B4FD2149086017480078A8B92B46424634
:1028F0001A4801681E48006802F0B2FD10B10120BC
:102900001C4908702A4641461448006803F016F92D
:1029100010B1002017490870174801680F48006877
:1029200004F0B6FF28B9104801680E48006803F0AB
:10293000B9FEBDE8F08100003001214214040140DD
:10294000340100200B0200203D0100203C0100204A
:1029500030000020000000200800002004000020BB
:102960000C0000201000002014000020D8F5FFFF0C
:102970001C0000202C0000203801002000212349E9
:102980008279002A3AD00A46126803689A430B46B5
:102990001A600A1D126803689A430B1D1A600279B7
:1029A00011440A6803681A430A60184A0832126818
:1029B00003689A43154B08331A601A1D126803689E
:1029C0009A43124B0C331A604279102A0ED11A1F07
:1029D000126803681A430D4B08331A601A1D1268F7
:1029E00003681A43094B0C331A600DE0074942791A
:1029F00011440A6803681A430A6005E00279114429
:102A00000A6803689A430A607047000000040140A6
:102A100000B589B0202101A8FDF7F2FB1548036835
:102A2000154816A1026801A805F0D8FB0123002271
:102A3000194601A801F0E9FE15480368154816A1DA
:102A4000026801A805F0CAFB01230022022101A8A7
:102A500001F0DBFE15480368154816A1026801A8BD
:102A600005F0BCFB01230022032101A801F0CDFEEB
:102A700009B000BDF8000020FC00002073656174FF
:102A80003A256420204D49443A2564202020000046
:102A9000E8000020E00000204C313A256420204C62
:102AA000333A25642020202020000000F40000207C
:102AB000EC00002052313A2564202052333A25643C
:102AC000202020202000000000B587B00121022036
:102AD00003F082F80121042003F09EF8C020ADF835
:102AE000000004208DF8030069461C4800F0F2F94C
:102AF00004A804F071FD0020ADF810004FF6FF703F
:102B0000ADF814000020ADF81600ADF8120004A9CD
:102B1000134804F00FFD00231A460321104804F067
:102B2000E5FA01A804F06AFB0A20ADF80C0001A93F
:102B30000B4804F00DFB0121094804F0C1F9012202
:102B40001146074804F063FB0021054804F0C3FC6C
:102B50000121034804F0BAF907B000BD00080140A4
:102B60000004004000B587B00121042003F034F8D0
:102B70000121082003F050F8C020ADF80000042027
:102B80008DF8030069461C4800F0A4F904A804F07D
:102B900023FD0020ADF810004FF6FF70ADF81400D3
:102BA0000020ADF81600ADF8120004A9134804F097
:102BB000C1FC00231A460321104804F097FA01A82B
:102BC00004F01CFB0A20ADF80C0001A90B4804F02E
:102BD000BFFA0121094804F073F9012211460748A0
:102BE00004F015FB0021054804F075FC01210348A1
:102BF00004F06CF907B000BD000C01400008004073
:102C00007A4800887A49088005207A49088014E0CB
:102C100076487849098830F8110075490988884252
:102C200006DB72487349098830F811007049088042
:102C300070480088401C6F4908806E4800887B28D7
:102C4000E6DB6A4800886C490880052069490880ED
:102C500014E066486749098830F811006649098818
:102C6000884206DC61486349098830F811006249EE
:102C7000088060480088401C5E4908805D480088E4
:102C80007B28E6DB5A4909885B4A1288881800EBE2
:102C9000D071C1F34701594A117005205549088088
:102CA00044E052485349098830F8110053490978E3
:102CB000884236DD4D494F480088401C31F81000ED
:102CC0004E49097888422CDD48494A480088801CD2
:102CD00031F8100049490978884222DD43494548C6
:102CE0000088C01C31F8100044490978884218DA7D
:102CF0003E4940480088001D31F810003F490978DE
:102D000088420EDA39493B480088401D31F81000EE
:102D10003A490978884204DA3648008838490880F8
:102D200008E034480088401C324908803148008857
:102D30007628B6DB00BF76203249088044E02B4875
:102D40003049098830F811002C490978884236DA70
:102D500026492C480088401C31F810002749097882
:102D600088422CDA214927480088801C31F810005D
:102D700022490978884222DA1C4922480088C01C6E
:102D800031F810001D490978884218DD17491D489F
:102D90000088001D31F810001849097888420EDDBE
:102DA000124918480088401D31F81000134909786D
:102DB000884204DD134800881349088008E0114860
:102DC0000088401E0F4908800E4800880528B6DCA0
:102DD00000BF0D4909880A4A1288881800EBD07193
:102DE000C1F34701094A117070470000C005002077
:102DF0000A010020020100200C0100200101002036
:102E0000060100200401002008010020000100202C
:102E10002DE9F05F1848B0F9000018490880B1F9B1
:102E20000010174AB2F90020881AFDF780FC064608
:102E3000144A154BFDF78CFB04460D460F48B0F9BC
:102E40000000FDF774FC06460E4A104BFDF780FBB0
:102E5000804622462B46FDF7D4FA8246FDF72EFD2A
:102E60000B4908600548B0F900000549088008488A
:102E70000068BDE8F09F00002C0300202E03002016
:102E800030030020FCA9F1D24D62403F4D62503F1B
:102E90003403002030B500228B071C0F0F2303FAE8
:102EA00004F20B4B8C1053F824309343084C8D10D4
:102EB00044F8253023468C1053F824308C07240F17
:102EC00000FA04F42343024C8D1044F8253030BD41
:102ED000080001402DE9F0410246002500260020AF
:102EE00000230024002791F803C00CF00F0591F88F
:102EF00003C00CF0100CBCF1000F03D091F802C01D
:102F00004CEA050591F800C0BCF1000F31D01468FF
:102F100000202BE04FF0010C0CFA00F3B1F800C0D8
:102F20000CEA03069E4220D183004FF00F0C0CFAEE
:102F300003F7BC4305FA03FC4CEA040491F803C010
:102F4000BCF1280F06D14FF0010C0CFA00FCC2F8BE
:102F500014C00AE091F803C0BCF1480F05D14FF04E
:102F6000010C0CFA00FCC2F810C0401C0828D1D398
:102F70001460B1F800C0BCF1FF0F34DD54680020CC
:102F80002EE000F1080C4FF0010808FA0CF3B1F83C
:102F900000C00CEA03069E4221D183004FF00F0CC3
:102FA0000CFA03F7BC4305FA03FC4CEA040491F85D
:102FB00003C0BCF1280F05D100F1080C08FA0CF889
:102FC000C2F8148091F803C0BCF1480F07D100F19A
:102FD000080C4FF0010808FA0CF8C2F81080401CE9
:102FE0000828CED35460BDE8F0810000F0B50A4651
:102FF000002300240021002500F00046B6F1004F18
:1030000002D11D4EF16901E01B4E7168C0F303450A
:1030100083B200F44016B6F5401F08D121F070616C
:10302000154E766826F07066134F7E6012E000F44D
:103030008016B6F5801F06D1032606FA05F4A143D3
:1030400041F0706106E0460D360103FA06F6B14321
:1030500041F0706122B1460D360103FA06F63143A4
:1030600000F00046B6F1004F02D1034EF16101E0DD
:10307000014E7160F0BD00000000014002460020DA
:1030800093680B400BB1012000E0002070474161C4
:10309000704701617047000010B504460723012204
:1030A00021460948FEF7CCF801210748FEF729F927
:1030B00000BF02210448FEF787F80028F9D0024833
:1030C000FEF77EF810BD00000028014010B5044650
:1030D0000723012221460948FEF7B2F801210748DB
:1030E000FEF70FF900BF02210448FEF76DF8002833
:1030F000F9D00248FEF764F810BD00000028014036
:103100002DE9F04F91B0804602F09CFFE249086043
:10311000B8F1010F1BD102F04BFEE0480068E04916
:103120000860E049B1F90000FDF7F3FADE490860F4
:10313000DC49B1F90400FDF7ECFADC490860DC4930
:10314000B1F90400FDF7E5FADA490860A1E144218C
:10315000D02000F013FC83464321D02000F00EFC69
:103160000BEB00200990FDF7D4FA06464621D0204B
:1031700000F004FC83464521D02000F0FFFB0BEB60
:1031800000200990FDF7C5FA0A904821D02000F0F0
:10319000F5FB83464721D02000F0F0FB0BEB00202D
:1031A0000990FDF7B6FA07463C21D02000F0E6FB77
:1031B00083463B21D02000F0E1FB0BEB002009907F
:1031C000FDF7A7FA0D903E21D02000F0D7FB8346F3
:1031D0003D21D02000F0D2FB0BEB00200990FDF741
:1031E00098FA82464021D02000F0C8FB83463F2158
:1031F000D02000F0C3FB0BEB00200990FDF789FA0B
:1032000005464FF08E413046FDF77EFB05D24FF06C
:103210008F413046FDF77FF806464FF08E410A9801
:10322000FDF772FB05D24FF08F410A98FDF773F856
:103230000A904FF08E413846FDF766FB05D24FF0FD
:103240008F413846FDF767F807464FF08E410D98DD
:10325000FDF75AFB05D24FF08F410D98FDF75BF853
:103260000D904FF08E415046FDF74EFB05D24FF0CA
:103270008F415046FDF74FF882464FF08E41284669
:10328000FDF742FB05D24FF08F412846FDF743F88A
:10329000054686F00040844908600D98FDF7CAFA9B
:1032A000854A864BCDE90601FDF7C4F9CDE9080151
:1032B000FDF704FB10905046FDF7BCFA7E4A7F4BA9
:1032C000CDE90601FDF7B6F9CDE90801FDF7F6FAFB
:1032D0000F902846FDF7AEFA774A784BCDE9060104
:1032E000FDF7A8F9CDE90801FDF7E8FA0E903046A0
:1032F000FDF7A0FA4FF06632714BCDE90601FDF7FC
:1033000099F9CDE90801FDF7D9FA81460A98FDF748
:1033100091FA4FF066326A4BCDE90601FDF78AF962
:10332000CDE90801FDF7CAFA04466648007802288C
:1033300037D189F0004002460390DDE90E1000F01D
:1033400061FD8346FDF776FA5F4A604BCDE90401E3
:10335000FDF770F900225E4BCDE90601FDF7F8F8A4
:10336000CDE90801FDF7AAFA4C49086022460E99FA
:10337000109800F0A3FE8346FDF75CFA524A534BC7
:10338000CDE90401FDF756F90022514BCDE90601C4
:10339000FDF7DEF8CDE90801FDF790FA4D49086028
:1033A0006FE04848007803286BD12846FDF742FAC1
:1033B000CDE902015046FDF73DFACDE90001DDE916
:1033C000022305F0A5FE0022414BCDE90401FDF7E3
:1033D000BFF83D4A3D4BCDE90601FDF72BF9CDE99C
:1033E0000801FDF76BFA0C902846FDF723FACDE9AA
:1033F00002010D98FDF71EFACDE90001DDE9022377
:1034000005F086FE0022324BCDE90401FDF7A0F85D
:103410002D4A2E4BCDE90601FDF70CF9CDE9080147
:10342000FDF74CFA0B903046FDF704FA4FF0663288
:10343000294BCDE90601FDF7FDF8CDE90801FDF7BF
:103440003DFA834659460C98FEF7D6FD80F00040C1
:10345000124908600A98FDF7EDF94FF066321E4BED
:10346000CDE90601FDF7E6F8CDE90801FDF726FAFA
:10347000834659460B98FEF7EFFD80F00040154952
:10348000086006480068064908600848076009485F
:10349000056011B0BDE8F08F180000207400002016
:1034A0000400002060000020080000200C00002024
:1034B000660000201C0000208FC2F5285C1F9A4087
:1034C000665E8D4000000020F1D4C853FB21094006
:1034D00000806640700000206666304010B500F045
:1034E000F1F8044603492046FCF71BFF044620463A
:1034F00010BD0000C3F5804010B523482349086083
:103500000320234908602349D1F83804FDF70AF95C
:10351000214948601F49D1F8B004FDF703F91E495D
:1035200088601C490868FDF7FDF81B49C860194907
:10353000D1F8F000FDF7F6F8174908611549D1F800
:103540006801FDF7EFF814494861002419E01249B9
:1035500051F824000021FDF7CDF900D10FE00E480D
:1035600050F8241009480068FDF7CEF906D20A4841
:1035700050F82400054908600548046000BF601C3D
:10358000C4B2072CE3DB10BD003C1C4650030020F6
:1035900054030020780B0020442D002010B501209A
:1035A000164908600F2006F075F900201449C1F88B
:1035B00080011448007800F08000E8B111480078DC
:1035C00000F03F00104908600846008800040860C9
:1035D000084600680D49098808440B4908600846F8
:1035E0000068AA2148434FF47A71B0FBF1F0064914
:1035F000086000200349088010BD000080012142BE
:1036000000002142DC000020D8000020DE00002065
:1036100029480078303864214843274949783039AF
:1036200001EB810100EB41012348807830380844E8
:10363000224908802048C0783038642148431E4918
:103640000979303901EB810100EB41011A484079D9
:10365000303808441949488019480078092829D188
:10366000154880793038642148431349C979303985
:1036700001EB810100EB41010F48007A303808442A
:103680000E4988800C48407A3038642148430A4902
:10369000897A303901EB810100EB41010648C07A9B
:1036A000303808440549C88008468088C98848439E
:1036B0000249088170470000600900201E030020B5
:1036C0000B02002070B50520FDF7A4FF0546284633
:1036D000FDF728F806460349FCF723FE044620467A
:1036E00070BD00003333533A2DE9FF5F05460E46A7
:1036F000144699462046FDF72BF882468B464846ED
:10370000FDF726F802460B46CDE900012846314672
:10371000FCF790FF52465B46CDE90201FCF718FF2B
:103720000746884638464146DDE90E23FCF769FE28
:10373000074688463846414607F00EFD04B0BDE80E
:10374000F09F00002DE9F04104466010FCF7EFFF08
:1037500007460022044BFCF76DFF05460E4628463F
:103760003146BDE8F0810000000050402DE9FC5FCB
:10377000824600230CE00AF10A0101EB830148882C
:1037800000F06CF8334901EB03110860581CC3B218
:103790009AF803009842EEDCBAF80400FFF7D2FF73
:1037A00004460D46BAF80600FFF7CCFF06460F4662
:1037B0002849C1E902459AF80310491E254A02EB3F
:1037C0000111C1E9026732463B4620462946FDF712
:1037D0005DF80ED222462B4600201F49FCF7B2FEB0
:1037E00032463B46CDE90001FCF70BFE8046894698
:1037F00007E022462B4630463946FCF7A3FE8046BA
:1038000089460022134640464946FDF727F81BD05B
:103810004FF0010B13E0CDE900459AF80300401E7C
:10382000C3B25A4640464946FFF75EFF094A02EBDB
:103830000B12C2E902010BF1010000F0FF0B9AF834
:103840000300401E5845E6DC9AF8030002F0F0FF42
:10385000BDE8FC9F18110020008076400146081248
:10386000C1F3850242EA8010704700002DE9F04F55
:1038700087B083468A465846FCF759FF0022344BEE
:10388000CDE90001FCF764FE0022324BCDE90201D4
:10389000FCF7D0FE804600222F4BFCF7CBFE0646FD
:1038A00000222E4BFCF7C6FE0446FDF707F80590F4
:1038B0000598FCF7BFFF2A4A2A4BCDE90201FCF725
:1038C00047FE80460022284BFCF742FE06460022B7
:1038D000264BFCF7AFFE0446FCF7F0FF24490860D6
:1038E0005046FCF724FF0022194BCDE90001FCF7FC
:1038F0002FFE06460022174BFCF79CFE04460022D2
:10390000154BFCF797FE80460022144BFCF792FE05
:10391000CDE90201FCF7D2FF04900498FCF78AFF7E
:1039200080460F4A0F4BFCF713FE00220E4BCDE9E9
:103930000201FCF70DFE064600220C4BFCF77AFE56
:103940000446FCF7BBFF0B49086007B0BDE8F08FE9
:10395000000069400000104000003E40000026408A
:10396000F1D4C853FB21094000C05040000024405E
:10397000480100204C01002000BFFEE770B505465D
:103980000E46002400F0EAF8284600F0B5F8641C62
:1039900000F03CF9304600F0AFF8641C00F036F956
:1039A00000F0DCF8691CC8B200F0A6F8641C00F056
:1039B0002DF9002000F068F8044600F003F92046D5
:1039C00070BD000010B500200E4908600E48006868
:1039D00020F470600C4908600846006840F44070AC
:1039E000086000200949C1F8A801012005F052FF34
:1039F00001200449086005F04DFF00200349C1F88B
:103A0000AC0110BDAC812142040C01400080214278
:103A100008B50121082002F0FFF84FF44060ADF82E
:103A2000000010208DF8030003208DF80200694685
:103A30000148FFF74FFA08BD000C014010B5002007
:103A40000E4908600E48006820F470600C49086058
:103A50000846006840F44070086001200949C1F838
:103A6000A80105F017FF01200449086005F012FFC6
:103A700000200449C1F8AC0110BD0000AC81214216
:103A8000040C01400080214270B50546002417480F
:103A9000006820F47060154908600846006840F42A
:103AA00000600860002616E000201149086002202E
:103AB00005F0F0FE01200F49C1F8AC016006040ECC
:103AC0000B488438006808B1601CC4B2022005F0BD
:103AD000E1FE701CC6B2082EE6DB15B1FFF772FFDF
:103AE00001E0FFF7ABFF204670BD0000040C014071
:103AF000AC8121420080214270B504461448006820
:103B000020F47060124908600846006840F4407074
:103B1000086000200F490860002516E0E0090D4903
:103B2000091F08606006040E012005F0B3FE0120A5
:103B30000949C1F8AC0105F0ADFE00200549086057
:103B4000012005F0A7FE681CC5B2082DE6DB70BD9C
:103B5000040C0140AC8121420080214210B516487E
:103B6000006820F47060144908600846006840F45A
:103B7000407008600120114908601148D0F8280100
:103B800008B9002010BD01200C49091D086005F08E
:103B900081FE00200A49C1F8A80108488038006861
:103BA00008B10020EEE7012005F074FE0020034973
:103BB000091D08600120E5E7040C0140A8812142AD
:103BC0000080214210B50E48006820F470600C4956
:103BD00008600846006840F4407008600020094909
:103BE00008600949C1F8A801012005F053FE012031
:103BF000044908600449C1F8A80105F04BFE10BD56
:103C0000040C0140AC8121420080214210B5002407
:103C10001548006820F47060134908600846006881
:103C200040F40060086001201049086005F032FE91
:103C300001200F49C1F8AC0105F02CFE0AE0601C20
:103C4000C4B2322C03DDFFF7BDFF002010BD012000
:103C500005F020FE0548803800680028EFD10349B0
:103C6000091D08600120F1E7040C0140A8812142F0
:103C70000080214270B505460E461446314628465E
:103C8000FFF77CFE2070012070BDF8B506460F4698
:103C900014461D466A4639463046FFF7EBFF2DB104
:103CA0000120A0409DF80010084305E00120A0403D
:103CB0009DF8001021EA0000C0B200909DF800209D
:103CC0003946304600F036F8F8BD2DE9F84307468E
:103CD000884614461D46089E6A4641463846FFF708
:103CE000C9FF28B3601CFF2101FA00F0C4F10801EC
:103CF0002944491EFF220A41104300F0FF09C5F183
:103D0000080006FA00F0C6B2C4F1070006419DF8AB
:103D1000000000EA090000909DF800003043009088
:103D20009DF800204146384600F004F8BDE8F883CD
:103D30000020FBE737B504460D4602AB01222946B9
:103D4000204600F001F83EBD2DE9F04180460D46C9
:103D500016461F460024FFF701FF4046FFF7CCFE42
:103D6000FFF754FF2846FFF7C7FEFFF74FFF00BFDE
:103D700006E0385DFFF7C0FEFFF748FF601CC4B2E5
:103D8000B442F6DBFFF71EFF0120BDE8F081000022
:103D900009480068094908600948006848600948FE
:103DA0000068886008480068C860084800680861C2
:103DB00007480068486170475C0100200409002042
:103DC0006001002064010020680100206C010020D7
:103DD0007001002001464906084A926942F001023A
:103DE000064B9A61064A526822F0E062044B5A6020
:103DF0001A4652680A435A60704700000010024099
:103E0000000001402DE9F04FADB0044689469246CE
:103E1000A3482B90A349D1E90023D1E90201CDE9C0
:103E20002723CDE92901CDF898A09E4B1033D3E983
:103E30000021D3E90203CDE92403CDE922219949E8
:103E4000203103C9CDE920019649283103C9CDE9C4
:103E50001E01944B30330FCB1AAD0FC59148403043
:103E6000006819908F4B4433D3E90020D3E9021343
:103E700016AD0BC515928B49543103C9CDE9130119
:103E80000020119012900F9010900B900C900D90BC
:103E90000E900790089009900A9005900690049063
:103EA0004846FCF7C7FC0746884684F0004001906E
:103EB000FCF7C0FC3A464346CDE9020105F028F97B
:103EC0000546FCF7FBFC834611A8774922AA01238B
:103ED000CDE90021029002221146104608F024F993
:103EE0000FA826A920AA0123CDE9002102901A4695
:103EF0001946022008F018F90F991198FCF7B9F942
:103F00006A49086010991298FCF7B3F9674948604C
:103F10000BA8674922AA0223CDE9002102901A4684
:103F20001946184608F000F907A815A90BAA02239C
:103F3000CDE9002102901A461946184608F0F4F817
:103F40001A990798FCF795F95A4908601B9908983F
:103F5000FCF78FF9574948601C990998FCF789F9D3
:103F6000544988601D990A98FCF783F95149C86043
:103F700005A81EAA0223CDE9002102901A4619467F
:103F8000012008F0D1F804A813A905AA0123CDE95E
:103F90000021029002221146184608F0C5F819992E
:103FA0000498FCF766F9054629464FF07E50FCF769
:103FB000EAF9049011A813A93E4A0123CDE9002192
:103FC000029002221146104608F0AEF83A4804A9C1
:103FD00011AA0123CDE9002102901A4619460220B8
:103FE00008F0A2F804A831491EAA0123CDE9002156
:103FF000029002221146184608F096F85846049995
:10400000FCF789F9049011A804A92B4A0123CDE9F2
:10401000002102901A461946022008F085F8234A2A
:1040200011991068FCF725F91F4908601F4A129979
:104030005068FCF71EF91C4948600BA81EA91E4ACF
:104040000223CDE90021029001221146184608F012
:104050006BF80B992798FCF75EF90B900C99289850
:10406000FCF759F90C900D992998FCF754F90D902B
:1040700027AA0E99D068FCF74EF90E900C480D490E
:104080000BAA0223CDE9002102901A4619461846D0
:1040900008F04AF8044800682DB0BDE8F08F000031
:1040A0000AD7A33B78FD0008C8020020D0020020F8
:1040B000D80200202C090020E80200202DE9F04F52
:1040C000ADB0044689469246A3482B90A349D1E956
:1040D0000023D1E90201CDE92723CDE92901CDF85B
:1040E00098A09E4B1033D3E90021D3E90203CDE918
:1040F0002403CDE922219949203103C9CDE92001CA
:104100009649283103C9CDE91E01944B30330FCBBA
:104110001AAD0FC591484030006819908F4B443359
:10412000D3E90020D3E9021316AD0BC515928B49D4
:10413000543103C9CDE913010020119012900F9062
:1041400010900B900C900D900E9007900890099095
:104150000A900590069004904846FCF76BFB0746D2
:10416000884684F000400190FCF764FB3A464346E1
:10417000CDE9020104F0CCFF0546FCF79FFB834626
:1041800011A8774922AA0123CDE900210290022239
:104190001146104607F0C8FF0FA826A920AA012340
:1041A000CDE9002102901A461946022007F0BCFF13
:1041B0000F991198FCF75DF86A49086010991298F8
:1041C000FCF757F8674948600BA8674922AA022301
:1041D000CDE9002102901A461946184607F0A4FFBF
:1041E00007A815A90BAA0223CDE9002102901A46BF
:1041F0001946184607F098FF1A990798FCF739F8FE
:104200005A4908601B990898FCF733F857494860E9
:104210001C990998FCF72DF8544988601D990A9853
:10422000FCF727F85149C86005A81EAA0223CDE96A
:10423000002102901A461946012007F075FF04A8D4
:1042400013A905AA0123CDE90021029002221146FB
:10425000184607F069FF19990498FCF70AF8054613
:1042600029464FF07E50FCF78EF8049011A813A950
:104270003E4A0123CDE90021029002221146104658
:1042800007F052FF3A4804A911AA0123CDE9002101
:1042900002901A461946022007F046FF04A8314949
:1042A0001EAA0123CDE900210290022211461846E0
:1042B00007F03AFF58460499FCF72DF8049011A82E
:1042C00004A92B4A0123CDE9002102901A46194680
:1042D000022007F029FF234A11991068FBF7C9FF54
:1042E0001F4908601F4A12995068FBF7C2FF1C491A
:1042F00048600BA81EA91E4A0223CDE900210290A6
:1043000001221146184607F00FFF0B992798FCF77A
:1043100002F80B900C992898FBF7FDFF0C900D9973
:104320002998FBF7F8FF0D9027AA0E99D068FBF7A4
:10433000F2FF0E900C480D490BAA0223CDE9002193
:1043400002901A461946184607F0EEFE0448006827
:104350002DB0BDE8F08F00000AD7A33BD4FD0008C4
:10436000F0020020F8020020000300203C09002099
:104370001003002008B50121042001F04DFC4FF48A
:104380008070ADF8000048208DF8030069460248AF
:10439000FEF7A0FD08BD00000008014010B504466E
:1043A00000F022F801280BD1601C0D490988B1EBFF
:1043B000400F0ADA0A480088401C0949088004E0D6
:1043C000002007490880074908800548008802281E
:1043D00003D101200349088010BD0020FCE7000044
:1043E000D4000020D200002010B54FF480710448A2
:1043F000FEF744FE08B9012010BD0020FCE70000D4
:104400000008014070B530480488002035E02F498D
:104410000988C82923DA2E49D1F8201129B12C495D
:10442000D1F82011B1F5C87F00D924E027490988C7
:10443000491C264A11802649B1F82011224A1180D0
:1044400011460988C831234A118020490988C729A3
:1044500005D10121204A1170C8211C4A11801C4934
:10446000D1F820111B4A1288914203D21849B1F8A1
:1044700020118CB200BF411CC8B20528C7DB13480D
:104480000088C82800DA70BD1148006850B1104893
:104490000068B0F5C87F05D20020104908601049B7
:1044A0000860F0E702F0ACF907480088FCF73AF939
:1044B00005462046FCF736F906462946FEF7C0F8C1
:1044C0000749086000BFDEE7780300207C03002076
:1044D000780B00207A0300206403002024000020D1
:1044E0002800002070B541480488002035E040498C
:1044F0000988C82923DA3F49D1F8201129B13D495B
:10450000D1F82011B1F5C87F00D924E038490988D5
:10451000491C374A11803749B1F82011334A1180BC
:1045200011460988C831344A118031490988C729A0
:1045300005D10121314A1170C8212D4A11802D4920
:10454000D1F820112C4A1288914203D22949B1F89E
:1045500020118CB200BF411CC8B20528C7DB24481B
:104560000088C82800DA70BD22480068D0B1214810
:10457000006821490988884214D22148007858B936
:1045800001201F4908701F481F4908601F48204923
:104590000860012005F074F900201E4908601E49DA
:1045A0000860E0E706F0B4FA00B1DCE714480078F0
:1045B000012809D1002012490870164908601449E1
:1045C000086011490860CEE702F01AF90748008830
:1045D000FCF7A8F805462046FCF7A4F8064629464D
:1045E000FEF760F80A49086000BFBCE78C030020B2
:1045F00090030020780B00208E030020650300202C
:10460000740300200000F0417C010020000016C46B
:104610002800002024000020700300201FB5012185
:10462000084601F0F9FA0121042001F0F5FA4FF4EF
:104630008050ADF80C0048208DF80F0003A91248F7
:10464000FEF748FC0C210020FEF724FC4FF48050BC
:10465000019000208DF808000C208DF80900012041
:104660008DF80A0001A8FEF789F928208DF80000CE
:1046700002208DF8010001208DF802008DF8030062
:10468000684600F085F81FBD0008014010B5022003
:1046900000F010F8032000F021F8002000F014F8DA
:1046A000002000F037F8002000F02BF8002000F088
:1046B0001FF810BD38B50446032302226B21D02019
:1046C0000094FFF702FB38BD38B5044602230422EC
:1046D0001C21D0200094FFF7F8FA38BD38B5044605
:1046E000022304221B21D0200094FFF7EEFA38BDEC
:1046F00010B50446234601223721D020FFF7C5FA22
:1047000010BD10B50446234605226A21D020FFF7CC
:10471000BCFA10BD10B50446234606226B21D020FA
:10472000FFF7B3FA10BD00BFFEE7000010B500248C
:1047300001231A46194611A000F067F80FE0002087
:1047400001F064FC204404B2012001F05FFC40420F
:10475000204404B2204604F0D5FE07F0BFFE01203D
:10476000FFF71CFE0028EAD001F0AAFE01F0D8FFF6
:1047700002F00EF801F0E0FE10BD0000312E53747F
:10478000616E64617264204D6F6465007047000063
:1047900070B5002100230F22C47804B3154C24689F
:1047A00004F4E064C4F5E064210AC1F10403CA40E2
:1047B000447804FA03F184781440214309010E4C33
:1047C0000678A155047804F01F050124AC40057853
:1047D0006D11AD0005F1E025C5F8004109E0047850
:1047E00004F01F050124AC40044D0678761145F80D
:1047F000264070BD0CED00E000E400E080E100E048
:1048000010B5002001F000FD10BDF8B507460C46BC
:1048100015461E46002C0CDD032C0ADC601E00EB46
:1048200080004006020E2B4600213846009600F01C
:1048300001F8F8BD2DE9F04107460C4615461E4625
:10484000DDF818800EB1FFF7DBFF2946204601F0A6
:10485000EBFC01220549384601F040FDB8F1000F9C
:1048600001D000F095F9BDE8F0810000A80000201B
:1048700010B500F013F800F0E9F801231A461946C4
:1048800001A0FFF7C2FF10BD6F6C656420696E69FF
:104890007420737563636573732100000848806931
:1048A00040F00800064988610648006820F0FF00D3
:1048B000044908600846006840F03300086070470B
:1048C00000100240040C014070B504461448006812
:1048D00020F0F000124908600846006840F03000FF
:1048E000086000200F490860002516E0E0090D4926
:1048F000091D08606006040E0120FDF78EFE0120F0
:104900000949C1F8A001FDF788FE002005490860AB
:104910000120FDF782FE681CC5B2082DE6DB70BDE4
:10492000040C0140A08121420080214210B51648AC
:10493000006820F0F000144908600846006840F064
:10494000300008600120114908601148D0F82401A6
:1049500008B9002010BD01200C49091F0860FDF7AF
:104960005CFE00200A49C1F8A401084880380068AC
:1049700008B10020EEE70220FDF74FFE00200349BA
:10498000091F08600120E5E7040C0140A4812142D1
:104990000080214210B51048006820F0F0000E4958
:1049A00008600846006840F03000086000200B49AD
:1049B00008600B49C1F8A4010220FDF72EFE01207A
:1049C00006490860FDF729FE01200549C1F8A40148
:1049D0000220FDF722FE10BD040C0140A0812142FF
:1049E0000080214210B500241548006820F0F00036
:1049F000134908600846006840F080000860012004
:104A000010490860FDF709FE01200F49C1F8A00117
:104A1000FDF703FE0AE0601CC4B2322C03DDFFF791
:104A2000B9FF002010BD0120FDF7F7FD05488038D3
:104A300000680028EFD10349091F08600120F1E751
:104A4000040C0140A48121420080214210B540F6AF
:104A5000C41400E0641E002CFCD1AE2200213C20D6
:104A600007F0B2FEA62200213C2007F0ADFEAE22E8
:104A700000213C2007F0A8FED52200213C2007F0B1
:104A8000A3FE802200213C2007F09EFEA8220021E8
:104A90003C2007F099FE1F2200213C2007F094FEE5
:104AA000D32200213C2007F08FFE002211463C203B
:104AB00007F08AFE402200213C2007F085FE8D226F
:104AC00000213C2007F080FE142200213C2007F04A
:104AD0007BFE202200213C2007F076FE02220021EE
:104AE0003C2007F071FEA12200213C2007F06CFE63
:104AF000C82200213C2007F067FEDA2200213C207A
:104B000007F062FE022200213C2007F05DFE8122B8
:104B100000213C2007F058FECF2200213C2007F066
:104B200053FED92200213C2007F04EFEF122002145
:104B30003C2007F049FEDB2200213C2007F044FE28
:104B4000402200213C2007F03FFE2E2200213C2085
:104B500007F03AFEA42200213C2007F035FEA622F1
:104B600000213C2007F030FEAF2200213C2007F05E
:104B70002BFE002001F048FB01F0C6FB002003499A
:104B8000088048800120487110BD0000A00000206E
:104B900010B501F0B9FB10BD70B50546FFF730FE4A
:104BA000002408E0285D202804DA295DA0B2012253
:104BB00001F0DAFA641C802CF4DBFFF7E9FF70BD2A
:104BC0002DE9F04105460E4617469846FFF7AEFE22
:104BD00010B90120BDE8F0816906080EFFF774FEE8
:104BE000FFF700FF18B9FFF7D5FE0120F2E73046C6
:104BF000FFF76AFEFFF7F6FE00240BE018F804004A
:104C0000FFF762FEFFF7EEFE18B9FFF7C3FE0020C4
:104C1000E0E7641CBC42F1DBFFF7BCFE0020D9E7F3
:104C20001FB56B4601AA02A903A807F0E5FD9DF890
:104C3000080001280ED19DF80C0058B99DF8040019
:104C4000012807D19DF80000012803D1FF20454924
:104C5000087086E09DF8080070B99DF80C0058B9FE
:104C60009DF80400012807D19DF80000012803D118
:104C7000FE203C49087074E09DF8080078B99DF862
:104C80000C0001280BD19DF80400012807D19DF8E4
:104C90000000012803D1FD203249087061E09DF831
:104CA000080068B99DF80C0050B99DF8040038B9A7
:104CB0009DF80000012803D1FC202A49087050E02B
:104CC0009DF8080001280DD19DF80C00012809D19C
:104CD0009DF8040030B99DF80000012802D1214957
:104CE00008703EE09DF8080001280DD19DF80C00E9
:104CF000012809D19DF8040030B99DF8000018B9C9
:104D00000220184908702CE09DF8080001280ED1F7
:104D10009DF80C0001280AD19DF80400012806D155
:104D20009DF8000018B903200E49087019E09DF89D
:104D3000080001280CD19DF80C0048B99DF804002A
:104D400030B99DF8000018B904200649087008E041
:104D50009DF80C0028B99DF8040010B90020014905
:104D600008701FBD1002002001460148405C7047DA
:104D700040070020002004E00021034A1154411C98
:104D8000C8B20928F8DB70474007002038B5044650
:104D90000120009000201E494870012000902EE064
:104DA000BDF80000204018B101201A49086002E057
:104DB00000201849086001201649083908600520BC
:104DC00004F068FD00201449C1F8B401052004F086
:104DD00061FD01201049C1F8B4010846D0F838013E
:104DE00030B10B484078BDF80010084308494870BE
:104DF000BDF800004FF6FF7101EA40000090BDF8D9
:104E00000000FF28CCDD102004F044FD38BD000078
:104E100040070020BC8121420080214210B50720BC
:104E2000FFF7A2FFB14908600820FFF79DFFB049D6
:104E300008600520FFF798FFAE4908600620FFF7DD
:104E400093FFAD49086000F06DF9AC490860A748D0
:104E50000068FF2813D1A6480068FF280FD1A54895
:104E60000068FF280BD1A4480068FF2807D1A44898
:104E70000068012802D10020A14908608BE0A04809
:104E8000006810B901209E490860984800683228DF
:104E900003DA97480068322807DB96480068322812
:104EA00007DA95480068322803DA07209549087028
:104EB00071E08E480068962803DD8D48006832282E
:104EC00007DB8C480068962807DD8B48006832288D
:104ED00003DA08208B4908705DE0844800683228B6
:104EE00003DA83480068962807DC82480068322885
:104EF00007DA81480068962803DD09208149087097
:104F000049E07A480068962803DD794800689628C9
:104F100007DC78480068962807DD774800689628FF
:104F200003DD0A207749087035E0714800685A2887
:104F300003DB714800685A2803DA012071490870C0
:104F400010BD6B480068962803DC6B480068962803
:104F500003DD02206B490870F2E7644800685A28B4
:104F600003DB644800685A2803DA032065490870A7
:104F7000E6E75E480068962803DC5E4800689628ED
:104F800003DD04205F490870DAE75C48006810B967
:104F900000205C49087059480068401F0C2876D2F0
:104FA000DFE800F060656A700734063361666B7194
:104FB00000BF55480078401C5349087008460078E7
:104FC000052801DD05200870504951480068FBF7AD
:104FD00050F94F4908604F494F480068FBF749F9BD
:104FE0004D4908604D494A480068FBF78DFC02D2E4
:104FF0004A48474908604A4947480068FBF784FC2B
:1050000002D24748444908606DE000BF3E4800783E
:10501000401E3D49087008460078012801DA012049
:1050200008703A493A480068FBF775F93849086052
:10503000384939480068FBF76EF937490860334949
:1050400033480068FBF756FC02D23048304908600C
:10505000304931480068FBF74DFC02D22D482E49FB
:10506000086040E000BF0120264908703BE000BF17
:1050700004202449087036E000BF0220214908704E
:1050800031E004E000BF03201E4908702BE01C48FB
:105090000068012823D1164800685A2822DD1448E8
:1050A00000688C281EDA114800685A281ADD0F485B
:1050B00000688C2816DA104800685A2812DD0E485D
:1050C00000688C280EDA0B4800685A280ADD094867
:1050D00000688C2806DA00200A49087003E00020E6
:1050E0000849087000BF00BF00BF29E7F001002099
:1050F000F4010020F8010020FC0100200002002043
:1051000004020020B001002008020020000020411D
:105110007401002000004041780100200000484256
:105120000000704210B5FFF725FE00F0CBF80F48E5
:10513000C0780E49097940EA01200D490880002411
:105140000FE00C4810F81400401E012101FA00F095
:1051500007490988084010B9601CC0B210BD601C26
:10516000C4B2102CEDDB0020F8E70000400700205F
:105170000E0100201201002010B500201349086024
:10518000102004F087FB0120FFF700FE4320FFF70B
:10519000FDFD0020FFF7FAFD0120FFF7F7FD0020DD
:1051A000FFF7F4FD0020FFF7F1FD0020FFF7EEFD13
:1051B0000020FFF7EBFD0020FFF7E8FD0120044988
:1051C000C1F8B001102004F065FB10BDB081214290
:1051D0000080214210B5002013490860102004F01F
:1051E00059FB0120FFF7D2FD4320FFF7CFFD002040
:1051F000FFF7CCFD0020FFF7C9FD5A20FFF7C6FDE1
:105200005A20FFF7C3FD5A20FFF7C0FD5A20FFF7D1
:10521000BDFD5A20FFF7BAFD01200449C1F8B001D5
:10522000102004F037FB10BDB081214200802142E4
:1052300008B50121082000F0EFFC48208DF803009C
:105240004FF48040ADF8000003208DF8020069465D
:105250001B48FDF73FFE0121082000F0DDFC102077
:105260008DF80300C002ADF8000003208DF80200A5
:1052700069461348FDF72EFE0121082000F0CCFC02
:1052800010208DF803000002ADF8000003208DF817
:10529000020069460A48FDF71DFE0121082000F0C2
:1052A000BBFC10208DF803004002ADF80000032085
:1052B0008DF8020069460248FDF70CFE08BD0000AB
:1052C000000C01401CB5002001900120009000203E
:1052D0002549086025490878FFF758FD2349487893
:1052E000FFF754FD0220019036E00120009027E0F6
:1052F00001201D49091D0860052004F0CBFA00209B
:105300001B49C1F8B401052004F0C4FA0120184972
:10531000C1F8B4010846D0F8380150B115489DF8DD
:105320000410405CBDF80010084312499DF80420A9
:105330008854BDF800004FF6FF7101EA400000906C
:10534000BDF80000FF28D3DD102004F0A3FA9DF87B
:105350000400401CC0B201909DF804000928C4DB81
:105360000120014908601CBDB081214210010020CC
:10537000008021424007002010B500F00BF800F03B
:1053800009F800F007F8FFF7F7FE00F025F8FFF73F
:1053900021FF10BD10B500200D490860102004F059
:1053A00079FA0120FFF7F2FC4220FFF7EFFC002022
:1053B000FFF7ECFC0020FFF7E9FC0020FFF7E6FC1C
:1053C00001200449C1F8B001102004F063FA10BDB7
:1053D000B08121420080214210B5002012490860AE
:1053E0000120FFF7D3FC4420FFF7D0FC0020FFF79B
:1053F000CDFC0120FFF7CAFCEE20FFF7C7FC002020
:10540000FFF7C4FC0020FFF7C1FC0020FFF7BEFC43
:105410000020FFF7BBFC01200449C1F8B0011020B7
:1054200004F038FA10BD0000B08121420080214212
:105430000146002902DD01F214507047002902DA0A
:10544000A1F21450F9E70846F7E7034618468842E8
:1054500000DD0846904200DA1046704770470000B1
:105460002DE9F04106460F4614461D463548008892
:10547000E0B9204606F0BDFE8046284606F0B9FE9B
:105480004044322805DA30480088401C2E49088004
:1054900002E000202C4908802B4800880A2805DDFE
:1054A00001202849088000202749088025480088D5
:1054B000012829D125480088401C80B22349088052
:1054C000C82803DD002008801E4908802049304696
:1054D000FBF71AFA18D21F490968A1F11400FBF76B
:1054E00018F980463946FBF705FA0DD219490968C3
:1054F00001F11400FBF70DF980463946FBF704FA79
:1055000002D202200F4908800E480088022816D1D6
:1055100011480088401C80B20F490880642803DDD0
:105520000020088007490880601906F062FE3228D2
:1055300005DD0020034908800120BDE8F08100203E
:10554000FBE700003E010020400100204201002056
:1055500000E0AB4620000020440100202DE9F0438C
:105560008BB0D34840783038052818D2DFE800F0F7
:105570001303070B0F000120CE49087013E002202F
:10558000CC4908700FE00320CA4908700BE00420E2
:10559000C849087007E00020C649087003E00020F1
:1055A000C449087000BF00BFC148C078312802D18B
:1055B0000520C0490870BE48C078322802D10620B4
:1055C000BC490870BA48FAF732FE15280CD2002000
:1055D000B94908705021B648FAF712FEB7A002F098
:1055E000BBFA0BB0BDE8F083B1484079312807D150
:1055F00000F0A2F9052004F01BF900F09DF90AE083
:10560000AB484079322806D100F05CFD00F094F9F7
:10561000AFA002F0A1FAA648C079312806D1012036
:10562000AD490860AAA002F097FA09E0A048C07945
:10563000322805D10020A8490860A5A002F08CFA04
:105640009B48407A312860D11C2104A8FAF7D8FD84
:1056500000200290039000900190A0A1944801F0D6
:105660002FF9814609F1010000B9BAE79C480068AA
:10567000A0EB09028E4800EB090104A8FAF7A7FD88
:1056800098A104A801F01CF90446601C00B9A8E721
:10569000A21E0DF1120102A8FAF799FD02A803F06B
:1056A00005FE07460022904BFAF752FF0546FBF72E
:1056B00005F98E4908601C2104A8FAF7A1FD09EB41
:1056C0000400874B1B681A1A794848442044411C3F
:1056D00004A8FAF77CFD83A104A801F0F1F80446C0
:1056E000601C00B97DE7A21E0DF112016846FAF7B1
:1056F0006EFD684603F0DAFD0546FBF7DFF87C49EE
:10570000086073A002F028FA00BF6948C07A312807
:1057100060D11C2104A8FAF773FD002002900390C9
:105720000090019073A1624801F0CAF8814609F126
:10573000010000B955E76A480068A0EB09025C481F
:1057400000EB090104A8FAF742FD66A104A801F0E4
:10575000B7F80446601C00B943E7A21E0DF1120120
:1057600002A8FAF734FD02A803F0A0FD07460022C4
:105770005D4BFAF7EDFE0546FBF7A0F85E490860C1
:105780001C2104A8FAF73CFD09EB0400544B1B68EC
:105790001A1A474848442044411C04A8FAF717FD48
:1057A00050A104A801F08CF80446601C00B918E769
:1057B000A21E0DF112016846FAF709FD684603F0D2
:1057C00075FD0546FBF77AF84C49086040A002F0E9
:1057D000C3F900BF3648407B312860D11C2104A8A2
:1057E000FAF70EFD0020029003900090019044A172
:1057F0002F4801F065F8814609F1010000B9F0E693
:1058000037480068A0EB0902294800EB090104A809
:10581000FAF7DDFC33A104A801F052F80446601C3D
:1058200000B9DEE6A21E0DF1120102A8FAF7CFFCC4
:1058300002A803F03BFD074600222B4BFAF788FE37
:105840000546FBF73BF82F4908601C2104A8FAF72E
:10585000D7FC09EB0400224B1B681A1A1448484471
:105860002044411C04A8FAF7B2FC27A104A801F0C7
:1058700027F80446601C00B9B3E6A21E0DF1120120
:105880006846FAF7A4FC684603F010FD0546FBF7EE
:1058900015F81E4908600EA002F05EF900BF002056
:1058A0000549087050210248FAF7AAFC00BF98E6A3
:1058B00078080020B0010020A00100202452656378
:1058C000656976655061636B4572726F7223000083
:1058D000244F4B23000000009C0100204150000099
:1058E000AC0100202C000000000059405C010020A9
:1058F0006001002056500000640100206801002073
:10590000545000006C0100202300000070010020B2
:1059100010B506480268521C05490648FAF757FCBC
:1059200050210348FAF76CFC10BD0000A4010020D0
:10593000280800207808002070B532216548FAF761
:105940005FFC644864A10968016000216348006845
:10595000FAF7DAFF0FD8624960480068FAF713FDDA
:105960000646FAF767FF044622460B465DA15F48EC
:1059700002F034FC03E05EA002F0EEF870BD0021FE
:105980005F480068FAF7C0FF0BD85D480068FAF777
:1059900051FF044622460B4652A15A4802F01EFC13
:1059A00003E053A002F0D8F8E8E700215648006869
:1059B000FAF7AAFF0FD84A4953480068FAF7E3FC00
:1059C0000646FAF737FF044622460B4645A14F48E4
:1059D00002F004FC03E046A002F0BEF8CEE700218E
:1059E0004B480068FAF790FF0BD849480068FAF76F
:1059F00021FF044622460B463AA1464802F0EEFB40
:105A000003E03BA002F0A8F8B8E700214248006894
:105A1000FAF77AFF0FD832493F480068FAF7B3FC2B
:105A20000646FAF707FF044622460B462DA13B48DF
:105A300002F0D4FB03E02EA002F08EF89EE70021D6
:105A400037480068FAF760FF0BD835480068FAF766
:105A5000F1FE044622460B4622A1324802F0BEFB6C
:105A600003E023A002F078F888E720491948FAF704
:105A7000D2FB2DA11748FAF7CEFB22491548FAF7B9
:105A8000CAFB2AA11348FAF7C6FB20491148FAF7C6
:105A9000C2FB27A10F48FAF7BEFB1E490D48FAF7D3
:105AA000BAFB24A10B48FAF7B6FB1C490948FAF7E0
:105AB000B2FB21A10748FAF7AEFB1A490548FAF7ED
:105AC000AAFB0EA10348FAF7A6FB024802F044F82D
:105AD00000BF53E7B1010020244150005C010020C9
